{
  "_format": "hh-sol-artifact-1",
  "contractName": "SimpleLoan",
  "sourceName": "contracts/SimpleLoan.sol",
  "abi": [
    {
      "inputs": [
        {
          "internalType": "address",
          "name": "_pyusdToken",
          "type": "address"
        },
        {
          "internalType": "address",
          "name": "_vaultContract",
          "type": "address"
        }
      ],
      "stateMutability": "nonpayable",
      "type": "constructor"
    },
    {
      "anonymous": false,
      "inputs": [
        {
          "indexed": true,
          "internalType": "address",
          "name": "user",
          "type": "address"
        }
      ],
      "name": "EmergencyLoanActivated",
      "type": "event"
    },
    {
      "anonymous": false,
      "inputs": [
        {
          "indexed": true,
          "internalType": "address",
          "name": "user",
          "type": "address"
        },
        {
          "indexed": false,
          "internalType": "uint256",
          "name": "amount",
          "type": "uint256"
        }
      ],
      "name": "EmergencyLoanWithdrawn",
      "type": "event"
    },
    {
      "anonymous": false,
      "inputs": [
        {
          "indexed": true,
          "internalType": "address",
          "name": "funder",
          "type": "address"
        },
        {
          "indexed": false,
          "internalType": "uint256",
          "name": "amount",
          "type": "uint256"
        }
      ],
      "name": "PoolFunded",
      "type": "event"
    },
    {
      "inputs": [],
      "name": "EMERGENCY_LOAN_AMOUNT",
      "outputs": [
        {
          "internalType": "uint256",
          "name": "",
          "type": "uint256"
        }
      ],
      "stateMutability": "view",
      "type": "function"
    },
    {
      "inputs": [
        {
          "internalType": "address",
          "name": "_user",
          "type": "address"
        }
      ],
      "name": "activateEmergencyLoan",
      "outputs": [],
      "stateMutability": "nonpayable",
      "type": "function"
    },
    {
      "inputs": [
        {
          "internalType": "address",
          "name": "",
          "type": "address"
        }
      ],
      "name": "activeRecoveries",
      "outputs": [
        {
          "internalType": "bool",
          "name": "",
          "type": "bool"
        }
      ],
      "stateMutability": "view",
      "type": "function"
    },
    {
      "inputs": [
        {
          "internalType": "uint256",
          "name": "_amount",
          "type": "uint256"
        }
      ],
      "name": "fundPool",
      "outputs": [],
      "stateMutability": "nonpayable",
      "type": "function"
    },
    {
      "inputs": [
        {
          "internalType": "address",
          "name": "",
          "type": "address"
        }
      ],
      "name": "loanWithdrawn",
      "outputs": [
        {
          "internalType": "bool",
          "name": "",
          "type": "bool"
        }
      ],
      "stateMutability": "view",
      "type": "function"
    },
    {
      "inputs": [],
      "name": "pyusdToken",
      "outputs": [
        {
          "internalType": "contract IERC20Simple",
          "name": "",
          "type": "address"
        }
      ],
      "stateMutability": "view",
      "type": "function"
    },
    {
      "inputs": [],
      "name": "vaultContract",
      "outputs": [
        {
          "internalType": "address",
          "name": "",
          "type": "address"
        }
      ],
      "stateMutability": "view",
      "type": "function"
    },
    {
      "inputs": [],
      "name": "withdrawEmergencyLoan",
      "outputs": [],
      "stateMutability": "nonpayable",
      "type": "function"
    }
  ],
  "bytecode": "0x608060405234801561001057600080fd5b5060405162000ed738038062000ed78339818101604052810190610034919061011f565b816000806101000a81548173ffffffffffffffffffffffffffffffffffffffff021916908373ffffffffffffffffffffffffffffffffffffffff16021790555080600160006101000a81548173ffffffffffffffffffffffffffffffffffffffff021916908373ffffffffffffffffffffffffffffffffffffffff160217905550505061015f565b600080fd5b600073ffffffffffffffffffffffffffffffffffffffff82169050919050565b60006100ec826100c1565b9050919050565b6100fc816100e1565b811461010757600080fd5b50565b600081519050610119816100f3565b92915050565b60008060408385031215610136576101356100bc565b5b60006101448582860161010a565b92505060206101558582860161010a565b9150509250929050565b610d68806200016f6000396000f3fe608060405234801561001057600080fd5b50600436106100885760003560e01c8063af81eaba1161005b578063af81eaba14610103578063bb63f1ef1461010d578063d2ed72691461013d578063da3a5f721461016d57610088565b80632274346b1461008d5780636ebc00bc146100ab57806391763009146100c7578063a538f519146100e5575b600080fd5b610095610189565b6040516100a29190610854565b60405180910390f35b6100c560048036038101906100c091906108a0565b6101af565b005b6100cf6102dd565b6040516100dc919061092c565b60405180910390f35b6100ed610301565b6040516100fa9190610960565b60405180910390f35b61010b61030e565b005b610127600480360381019061012291906108a0565b6106a3565b6040516101349190610996565b60405180910390f35b610157600480360381019061015291906108a0565b6106c3565b6040516101649190610996565b60405180910390f35b610187600480360381019061018291906109dd565b6106e3565b005b600160009054906101000a900473ffffffffffffffffffffffffffffffffffffffff1681565b600160009054906101000a900473ffffffffffffffffffffffffffffffffffffffff1673ffffffffffffffffffffffffffffffffffffffff163373ffffffffffffffffffffffffffffffffffffffff161461023f576040517f08c379a000000000000000000000000000000000000000000000000000000000815260040161023690610a67565b60405180910390fd5b6001600260008373ffffffffffffffffffffffffffffffffffffffff1673ffffffffffffffffffffffffffffffffffffffff16815260200190815260200160002060006101000a81548160ff0219169083151502179055508073ffffffffffffffffffffffffffffffffffffffff167f668695514caee55871e85c97592d2c396744f0acd1266fd0543b8e9bc5faa59760405160405180910390a250565b60008054906101000a900473ffffffffffffffffffffffffffffffffffffffff1681565b680ad78ebc5ac620000081565b600260003373ffffffffffffffffffffffffffffffffffffffff1673ffffffffffffffffffffffffffffffffffffffff16815260200190815260200160002060009054906101000a900460ff1661039a576040517f08c379a000000000000000000000000000000000000000000000000000000000815260040161039190610ad3565b60405180910390fd5b600360003373ffffffffffffffffffffffffffffffffffffffff1673ffffffffffffffffffffffffffffffffffffffff16815260200190815260200160002060009054906101000a900460ff1615610427576040517f08c379a000000000000000000000000000000000000000000000000000000000815260040161041e90610b3f565b60405180910390fd5b6001600360003373ffffffffffffffffffffffffffffffffffffffff1673ffffffffffffffffffffffffffffffffffffffff16815260200190815260200160002060006101000a81548160ff021916908315150217905550680ad78ebc5ac620000060008054906101000a900473ffffffffffffffffffffffffffffffffffffffff1673ffffffffffffffffffffffffffffffffffffffff166370a08231306040518263ffffffff1660e01b81526004016104e29190610854565b602060405180830381865afa1580156104ff573d6000803e3d6000fd5b505050506040513d601f19601f820116820180604052508101906105239190610b74565b1015610564576040517f08c379a000000000000000000000000000000000000000000000000000000000815260040161055b90610bed565b60405180910390fd5b60008054906101000a900473ffffffffffffffffffffffffffffffffffffffff1673ffffffffffffffffffffffffffffffffffffffff1663a9059cbb33680ad78ebc5ac62000006040518363ffffffff1660e01b81526004016105c8929190610c0d565b6020604051808303816000875af11580156105e7573d6000803e3d6000fd5b505050506040513d601f19601f8201168201806040525081019061060b9190610c62565b61064a576040517f08c379a000000000000000000000000000000000000000000000000000000000815260040161064190610cdb565b60405180910390fd5b3373ffffffffffffffffffffffffffffffffffffffff167fb38dcb0c5c0a8fcabaf2f888cc896c94506dcd6d8548c8131c853e2fca163e28680ad78ebc5ac62000006040516106999190610960565b60405180910390a2565b60026020528060005260406000206000915054906101000a900460ff1681565b60036020528060005260406000206000915054906101000a900460ff1681565b60008054906101000a900473ffffffffffffffffffffffffffffffffffffffff1673ffffffffffffffffffffffffffffffffffffffff166323b872dd3330846040518463ffffffff1660e01b815260040161074093929190610cfb565b6020604051808303816000875af115801561075f573d6000803e3d6000fd5b505050506040513d601f19601f820116820180604052508101906107839190610c62565b6107c2576040517f08c379a00000000000000000000000000000000000000000000000000000000081526004016107b990610cdb565b60405180910390fd5b3373ffffffffffffffffffffffffffffffffffffffff167f32173d8e51cec3a6fe484b7a1c3febe760cdf96e03d4cca36a43563a4333e838826040516108089190610960565b60405180910390a250565b600073ffffffffffffffffffffffffffffffffffffffff82169050919050565b600061083e82610813565b9050919050565b61084e81610833565b82525050565b60006020820190506108696000830184610845565b92915050565b600080fd5b61087d81610833565b811461088857600080fd5b50565b60008135905061089a81610874565b92915050565b6000602082840312156108b6576108b561086f565b5b60006108c48482850161088b565b91505092915050565b6000819050919050565b60006108f26108ed6108e884610813565b6108cd565b610813565b9050919050565b6000610904826108d7565b9050919050565b6000610916826108f9565b9050919050565b6109268161090b565b82525050565b6000602082019050610941600083018461091d565b92915050565b6000819050919050565b61095a81610947565b82525050565b60006020820190506109756000830184610951565b92915050565b60008115159050919050565b6109908161097b565b82525050565b60006020820190506109ab6000830184610987565b92915050565b6109ba81610947565b81146109c557600080fd5b50565b6000813590506109d7816109b1565b92915050565b6000602082840312156109f3576109f261086f565b5b6000610a01848285016109c8565b91505092915050565b600082825260208201905092915050565b7f4f6e6c79207661756c7400000000000000000000000000000000000000000000600082015250565b6000610a51600a83610a0a565b9150610a5c82610a1b565b602082019050919050565b60006020820190508181036000830152610a8081610a44565b9050919050565b7f4e6f742061637469766500000000000000000000000000000000000000000000600082015250565b6000610abd600a83610a0a565b9150610ac882610a87565b602082019050919050565b60006020820190508181036000830152610aec81610ab0565b9050919050565b7f416c72656164792077697468647261776e000000000000000000000000000000600082015250565b6000610b29601183610a0a565b9150610b3482610af3565b602082019050919050565b60006020820190508181036000830152610b5881610b1c565b9050919050565b600081519050610b6e816109b1565b92915050565b600060208284031215610b8a57610b8961086f565b5b6000610b9884828501610b5f565b91505092915050565b7f496e73756666696369656e742066756e64730000000000000000000000000000600082015250565b6000610bd7601283610a0a565b9150610be282610ba1565b602082019050919050565b60006020820190508181036000830152610c0681610bca565b9050919050565b6000604082019050610c226000830185610845565b610c2f6020830184610951565b9392505050565b610c3f8161097b565b8114610c4a57600080fd5b50565b600081519050610c5c81610c36565b92915050565b600060208284031215610c7857610c7761086f565b5b6000610c8684828501610c4d565b91505092915050565b7f5472616e73666572206661696c65640000000000000000000000000000000000600082015250565b6000610cc5600f83610a0a565b9150610cd082610c8f565b602082019050919050565b60006020820190508181036000830152610cf481610cb8565b9050919050565b6000606082019050610d106000830186610845565b610d1d6020830185610845565b610d2a6040830184610951565b94935050505056fea2646970667358221220cb52dd36fd2c1491916b0c68eab9fab9532646e924184269b9222f58f88f9e5d64736f6c63430008140033",
  "linkReferences": {},
  "deployedLinkReferences": {}
}