{
  "_format": "hh-sol-artifact-1",
  "contractName": "SimpleVault",
  "sourceName": "contracts/SimpleVault.sol",
  "abi": [
    {
      "inputs": [
        {
          "internalType": "address",
          "name": "_owner",
          "type": "address"
        },
        {
          "internalType": "address[]",
          "name": "_guardians",
          "type": "address[]"
        },
        {
          "internalType": "address",
          "name": "_loanContract",
          "type": "address"
        }
      ],
      "stateMutability": "nonpayable",
      "type": "constructor"
    },
    {
      "anonymous": false,
      "inputs": [
        {
          "indexed": true,
          "internalType": "address",
          "name": "guardian",
          "type": "address"
        }
      ],
      "name": "GuardianAdded",
      "type": "event"
    },
    {
      "anonymous": false,
      "inputs": [
        {
          "indexed": true,
          "internalType": "address",
          "name": "guardian",
          "type": "address"
        }
      ],
      "name": "RecoveryApproved",
      "type": "event"
    },
    {
      "anonymous": false,
      "inputs": [
        {
          "indexed": false,
          "internalType": "address",
          "name": "oldOwner",
          "type": "address"
        },
        {
          "indexed": true,
          "internalType": "address",
          "name": "newOwner",
          "type": "address"
        }
      ],
      "name": "RecoveryExecuted",
      "type": "event"
    },
    {
      "anonymous": false,
      "inputs": [
        {
          "indexed": false,
          "internalType": "address",
          "name": "newOwner",
          "type": "address"
        },
        {
          "indexed": true,
          "internalType": "address",
          "name": "guardian",
          "type": "address"
        }
      ],
      "name": "RecoveryStarted",
      "type": "event"
    },
    {
      "inputs": [],
      "name": "REQUIRED_APPROVALS",
      "outputs": [
        {
          "internalType": "uint256",
          "name": "",
          "type": "uint256"
        }
      ],
      "stateMutability": "view",
      "type": "function"
    },
    {
      "inputs": [],
      "name": "activeRecovery",
      "outputs": [
        {
          "internalType": "bool",
          "name": "active",
          "type": "bool"
        },
        {
          "internalType": "address",
          "name": "newOwner",
          "type": "address"
        },
        {
          "internalType": "uint256",
          "name": "approvalCount",
          "type": "uint256"
        }
      ],
      "stateMutability": "view",
      "type": "function"
    },
    {
      "inputs": [
        {
          "internalType": "address",
          "name": "_guardian",
          "type": "address"
        }
      ],
      "name": "addGuardian",
      "outputs": [],
      "stateMutability": "nonpayable",
      "type": "function"
    },
    {
      "inputs": [],
      "name": "approveRecovery",
      "outputs": [],
      "stateMutability": "nonpayable",
      "type": "function"
    },
    {
      "inputs": [],
      "name": "executeRecovery",
      "outputs": [],
      "stateMutability": "nonpayable",
      "type": "function"
    },
    {
      "inputs": [],
      "name": "guardianCount",
      "outputs": [
        {
          "internalType": "uint256",
          "name": "",
          "type": "uint256"
        }
      ],
      "stateMutability": "view",
      "type": "function"
    },
    {
      "inputs": [
        {
          "internalType": "address",
          "name": "",
          "type": "address"
        }
      ],
      "name": "isGuardian",
      "outputs": [
        {
          "internalType": "bool",
          "name": "",
          "type": "bool"
        }
      ],
      "stateMutability": "view",
      "type": "function"
    },
    {
      "inputs": [],
      "name": "loanContract",
      "outputs": [
        {
          "internalType": "address",
          "name": "",
          "type": "address"
        }
      ],
      "stateMutability": "view",
      "type": "function"
    },
    {
      "inputs": [],
      "name": "owner",
      "outputs": [
        {
          "internalType": "address",
          "name": "",
          "type": "address"
        }
      ],
      "stateMutability": "view",
      "type": "function"
    },
    {
      "inputs": [
        {
          "internalType": "address",
          "name": "_newOwner",
          "type": "address"
        }
      ],
      "name": "startRecovery",
      "outputs": [],
      "stateMutability": "nonpayable",
      "type": "function"
    },
    {
      "stateMutability": "payable",
      "type": "receive"
    }
  ],
  "bytecode": "0x60806040523480156200001157600080fd5b5060405162001574380380620015748339818101604052810190620000379190620003b0565b826000806101000a81548173ffffffffffffffffffffffffffffffffffffffff021916908373ffffffffffffffffffffffffffffffffffffffff16021790555080600160006101000a81548173ffffffffffffffffffffffffffffffffffffffff021916908373ffffffffffffffffffffffffffffffffffffffff16021790555060005b8251811015620001b057600160026000858481518110620000e157620000e06200042b565b5b602002602001015173ffffffffffffffffffffffffffffffffffffffff1673ffffffffffffffffffffffffffffffffffffffff16815260200190815260200160002060006101000a81548160ff02191690831515021790555082818151811062000150576200014f6200042b565b5b602002602001015173ffffffffffffffffffffffffffffffffffffffff167f038596bb31e2e7d3d9f184d4c98b310103f6d7f5830e5eec32bffe6f1728f96960405160405180910390a28080620001a79062000493565b915050620000bb565b508151600381905550505050620004e0565b6000604051905090565b600080fd5b600080fd5b600073ffffffffffffffffffffffffffffffffffffffff82169050919050565b60006200020382620001d6565b9050919050565b6200021581620001f6565b81146200022157600080fd5b50565b60008151905062000235816200020a565b92915050565b600080fd5b6000601f19601f8301169050919050565b7f4e487b7100000000000000000000000000000000000000000000000000000000600052604160045260246000fd5b6200028b8262000240565b810181811067ffffffffffffffff82111715620002ad57620002ac62000251565b5b80604052505050565b6000620002c2620001c2565b9050620002d0828262000280565b919050565b600067ffffffffffffffff821115620002f357620002f262000251565b5b602082029050602081019050919050565b600080fd5b6000620003206200031a84620002d5565b620002b6565b9050808382526020820190506020840283018581111562000346576200034562000304565b5b835b818110156200037357806200035e888262000224565b84526020840193505060208101905062000348565b5050509392505050565b600082601f8301126200039557620003946200023b565b5b8151620003a784826020860162000309565b91505092915050565b600080600060608486031215620003cc57620003cb620001cc565b5b6000620003dc8682870162000224565b935050602084015167ffffffffffffffff8111156200040057620003ff620001d1565b5b6200040e868287016200037d565b9250506040620004218682870162000224565b9150509250925092565b7f4e487b7100000000000000000000000000000000000000000000000000000000600052603260045260246000fd5b7f4e487b7100000000000000000000000000000000000000000000000000000000600052601160045260246000fd5b6000819050919050565b6000620004a08262000489565b91507fffffffffffffffffffffffffffffffffffffffffffffffffffffffffffffffff8203620004d557620004d46200045a565b5b600182019050919050565b61108480620004f06000396000f3fe6080604052600436106100955760003560e01c80638da5cb5b116100595780638da5cb5b14610176578063a526d83b146101a1578063b5cb7bb8146101ca578063bd5021af146101f7578063fcae8d38146102205761009c565b80630c68ba21146100a157806320c5a3e1146100de578063253f284b146100f557806354387ad714610120578063599c55331461014b5761009c565b3661009c57005b600080fd5b3480156100ad57600080fd5b506100c860048036038101906100c39190610bda565b610237565b6040516100d59190610c22565b60405180910390f35b3480156100ea57600080fd5b506100f3610257565b005b34801561010157600080fd5b5061010a610436565b6040516101179190610c4c565b60405180910390f35b34801561012c57600080fd5b5061013561045c565b6040516101429190610c80565b60405180910390f35b34801561015757600080fd5b50610160610462565b60405161016d9190610c80565b60405180910390f35b34801561018257600080fd5b5061018b610467565b6040516101989190610c4c565b60405180910390f35b3480156101ad57600080fd5b506101c860048036038101906101c39190610bda565b61048b565b005b3480156101d657600080fd5b506101df61065c565b6040516101ee93929190610c9b565b60405180910390f35b34801561020357600080fd5b5061021e60048036038101906102199190610bda565b6106a1565b005b34801561022c57600080fd5b50610235610899565b005b60026020528060005260406000206000915054906101000a900460ff1681565b600460000160009054906101000a900460ff166102a9576040517f08c379a00000000000000000000000000000000000000000000000000000000081526004016102a090610d2f565b60405180910390fd5b600260046001015410156102f2576040517f08c379a00000000000000000000000000000000000000000000000000000000081526004016102e990610d9b565b60405180910390fd5b60008060009054906101000a900473ffffffffffffffffffffffffffffffffffffffff169050600460000160019054906101000a900473ffffffffffffffffffffffffffffffffffffffff166000806101000a81548173ffffffffffffffffffffffffffffffffffffffff021916908373ffffffffffffffffffffffffffffffffffffffff1602179055506004600080820160006101000a81549060ff02191690556000820160016101000a81549073ffffffffffffffffffffffffffffffffffffffff02191690556001820160009055505060008054906101000a900473ffffffffffffffffffffffffffffffffffffffff1673ffffffffffffffffffffffffffffffffffffffff167f60f9f98be64687700419cfa6fdd7877bc88c6daeb10bc664a2be9fdd6b0c79218260405161042b9190610c4c565b60405180910390a250565b600160009054906101000a900473ffffffffffffffffffffffffffffffffffffffff1681565b60035481565b600281565b60008054906101000a900473ffffffffffffffffffffffffffffffffffffffff1681565b60008054906101000a900473ffffffffffffffffffffffffffffffffffffffff1673ffffffffffffffffffffffffffffffffffffffff163373ffffffffffffffffffffffffffffffffffffffff1614610519576040517f08c379a000000000000000000000000000000000000000000000000000000000815260040161051090610e07565b60405180910390fd5b600260008273ffffffffffffffffffffffffffffffffffffffff1673ffffffffffffffffffffffffffffffffffffffff16815260200190815260200160002060009054906101000a900460ff16156105a6576040517f08c379a000000000000000000000000000000000000000000000000000000000815260040161059d90610e73565b60405180910390fd5b6001600260008373ffffffffffffffffffffffffffffffffffffffff1673ffffffffffffffffffffffffffffffffffffffff16815260200190815260200160002060006101000a81548160ff0219169083151502179055506003600081548092919061061190610ec2565b91905055508073ffffffffffffffffffffffffffffffffffffffff167f038596bb31e2e7d3d9f184d4c98b310103f6d7f5830e5eec32bffe6f1728f96960405160405180910390a250565b60048060000160009054906101000a900460ff16908060000160019054906101000a900473ffffffffffffffffffffffffffffffffffffffff16908060010154905083565b600260003373ffffffffffffffffffffffffffffffffffffffff1673ffffffffffffffffffffffffffffffffffffffff16815260200190815260200160002060009054906101000a900460ff1661072d576040517f08c379a000000000000000000000000000000000000000000000000000000000815260040161072490610f56565b60405180910390fd5b600460000160009054906101000a900460ff1615610780576040517f08c379a000000000000000000000000000000000000000000000000000000000815260040161077790610fc2565b60405180910390fd5b6001600460000160006101000a81548160ff02191690831515021790555080600460000160016101000a81548173ffffffffffffffffffffffffffffffffffffffff021916908373ffffffffffffffffffffffffffffffffffffffff16021790555060016004600101819055506001600460020160003373ffffffffffffffffffffffffffffffffffffffff1673ffffffffffffffffffffffffffffffffffffffff16815260200190815260200160002060006101000a81548160ff0219169083151502179055503373ffffffffffffffffffffffffffffffffffffffff167f20039e6a2553e89f3640f5f470e48b2a7a5b026ae754b426d92b54ba2fc192c88260405161088e9190610c4c565b60405180910390a250565b600260003373ffffffffffffffffffffffffffffffffffffffff1673ffffffffffffffffffffffffffffffffffffffff16815260200190815260200160002060009054906101000a900460ff16610925576040517f08c379a000000000000000000000000000000000000000000000000000000000815260040161091c90610f56565b60405180910390fd5b600460000160009054906101000a900460ff16610977576040517f08c379a000000000000000000000000000000000000000000000000000000000815260040161096e90610d2f565b60405180910390fd5b600460020160003373ffffffffffffffffffffffffffffffffffffffff1673ffffffffffffffffffffffffffffffffffffffff16815260200190815260200160002060009054906101000a900460ff1615610a07576040517f08c379a00000000000000000000000000000000000000000000000000000000081526004016109fe9061102e565b60405180910390fd5b6001600460020160003373ffffffffffffffffffffffffffffffffffffffff1673ffffffffffffffffffffffffffffffffffffffff16815260200190815260200160002060006101000a81548160ff02191690831515021790555060046001016000815480929190610a7890610ec2565b91905055503373ffffffffffffffffffffffffffffffffffffffff167f47032c9dbd3001ab3b46aa359314884f3f192d251eda3b26f0be4cffd76d39c560405160405180910390a2600260046001015410610b7557600160009054906101000a900473ffffffffffffffffffffffffffffffffffffffff1673ffffffffffffffffffffffffffffffffffffffff16636ebc00bc60008054906101000a900473ffffffffffffffffffffffffffffffffffffffff166040518263ffffffff1660e01b8152600401610b489190610c4c565b600060405180830381600087803b158015610b6257600080fd5b505af1925050508015610b73575060015b505b565b600080fd5b600073ffffffffffffffffffffffffffffffffffffffff82169050919050565b6000610ba782610b7c565b9050919050565b610bb781610b9c565b8114610bc257600080fd5b50565b600081359050610bd481610bae565b92915050565b600060208284031215610bf057610bef610b77565b5b6000610bfe84828501610bc5565b91505092915050565b60008115159050919050565b610c1c81610c07565b82525050565b6000602082019050610c376000830184610c13565b92915050565b610c4681610b9c565b82525050565b6000602082019050610c616000830184610c3d565b92915050565b6000819050919050565b610c7a81610c67565b82525050565b6000602082019050610c956000830184610c71565b92915050565b6000606082019050610cb06000830186610c13565b610cbd6020830185610c3d565b610cca6040830184610c71565b949350505050565b600082825260208201905092915050565b7f4e6f207265636f76657279000000000000000000000000000000000000000000600082015250565b6000610d19600b83610cd2565b9150610d2482610ce3565b602082019050919050565b60006020820190508181036000830152610d4881610d0c565b9050919050565b7f4e6f7420656e6f75676820617070726f76616c73000000000000000000000000600082015250565b6000610d85601483610cd2565b9150610d9082610d4f565b602082019050919050565b60006020820190508181036000830152610db481610d78565b9050919050565b7f4e6f74206f776e65720000000000000000000000000000000000000000000000600082015250565b6000610df1600983610cd2565b9150610dfc82610dbb565b602082019050919050565b60006020820190508181036000830152610e2081610de4565b9050919050565b7f416c726561647920677561726469616e00000000000000000000000000000000600082015250565b6000610e5d601083610cd2565b9150610e6882610e27565b602082019050919050565b60006020820190508181036000830152610e8c81610e50565b9050919050565b7f4e487b7100000000000000000000000000000000000000000000000000000000600052601160045260246000fd5b6000610ecd82610c67565b91507fffffffffffffffffffffffffffffffffffffffffffffffffffffffffffffffff8203610eff57610efe610e93565b5b600182019050919050565b7f4e6f7420677561726469616e0000000000000000000000000000000000000000600082015250565b6000610f40600c83610cd2565b9150610f4b82610f0a565b602082019050919050565b60006020820190508181036000830152610f6f81610f33565b9050919050565b7f5265636f76657279206163746976650000000000000000000000000000000000600082015250565b6000610fac600f83610cd2565b9150610fb782610f76565b602082019050919050565b60006020820190508181036000830152610fdb81610f9f565b9050919050565b7f416c726561647920617070726f76656400000000000000000000000000000000600082015250565b6000611018601083610cd2565b915061102382610fe2565b602082019050919050565b600060208201905081810360008301526110478161100b565b905091905056fea2646970667358221220079ebacfc3f590b4b74a295391a0599a5ab051bb980f8a7e1a210618afa758df64736f6c63430008140033",
  "linkReferences": {},
  "deployedLinkReferences": {}
}